:040000000CEF00F011
:10000800FACF02F0FBCF03F0E9CF04F00EED00F0D9
:100018005FEF00F00600EACF05F0E1CF06F0E2CF8F
:1000280007F0D9CF08F0DACF09F0F3CF0AF0F4CF10
:100038000BF0F6CF0CF0F7CF0DF0F8CF0EF0F5CFB0
:100048000FF0F2A20ED081BA02D0010E01D0000E3C
:10005800016E013A014681500118DF0B0118816ECB
:10006800F2920FC0F5FF0EC0F8FF0DC0F7FF0CC0ED
:10007800F6FF0BC0F4FF0AC0F3FF09C0DAFF08C09F
:10008800D9FF07C0E2FF06C0E1FF05C0EAFF04C0D0
:10009800E9FF03C0FBFF02C0FAFF1100000E816EEA
:1000A800000E8A6E0F0EC16EDF0E936E100EF26E8A
:0E00B800F28CF28EFFD7106A000152EF00F0BA
:020000040020DA
:08000000FFFFFFFFFFFFFFFF00
:020000040030CA
:0E000000FF08191EFF8181FF0FC00FE00F40A7
:00000001FF
