:040000000CEF00F011
:10000800FACF01F0FBCF02F0E9CF03F054ED00F096
:1000180091EF00F0000E816E000E8A6E0F0EC16E19
:10002800CF0E936E200EF26EF28CF28EF40ED76E17
:10003800240ED66E030ED56ED58E000E0F6E1050A0
:10004800D8A40AD0FCD7818820D081981ED0819866
:10005800818A1BD0819A19D00F50000AD8B4F3D7DF
:10006800010AD8B4F2D7030AD8B4EDD7010AD8B434
:10007800EED7070AD8B4EED70C0AD8B4E4D7010AE9
:10008800D8B4E5D7030AD8B4E5D70C0E0F5CD8B0BE
:1000980002D00F2A02D0000E0F6E000E106ECFD7BE
:1000A8000600EACF04F0E1CF05F0E2CF06F0D9CFA1
:1000B80007F0DACF08F0F3CF09F0F4CF0AF0F6CF63
:1000C8000BF0F7CF0CF0F8CF0DF0F5CF0EF0F2A44F
:1000D80007D0F40ED76E240ED66E010E106EF29471
:1000E8000EC0F5FF0DC0F8FF0CC0F7FF0BC0F6FF00
:1000F8000AC0F4FF09C0F3FF08C0DAFF07C0D9FF40
:1001080006C0E2FF05C0E1FF04C0EAFF03C0E9FF43
:1001180002C0FBFF01C0FAFF1100106A000EF86E62
:0601280000010EEF00F0E3
:020000040020DA
:08000000FFFFFFFFFFFFFFFF00
:020000040030CA
:0E000000FF08191EFF8181FF0FC00FE00F40A7
:00000001FF
