:040000000CEF00F011
:10000800FACF01F0FBCF02F0E9CF03F00EED00F0DC
:1000180092EF01F00600EACF04F0E1CF05F0E2CF5D
:1000280006F0D9CF07F0DACF08F0F3CF09F0F4CF14
:100038000AF0F6CF0BF0F7CF0CF0F8CF0DF0F5CFB4
:100048000EF0F0A01ED014501310D8A408D0000E43
:10005800146E010E136EF288D58EF28A07D0000E48
:10006800146E000E136EF298D59EF29A8198819ABA
:10007800000E166E000E156E000E186E000E176E2E
:10008800F090F2A218D0030E135C000E1458D8B0EA
:1000980007D014501310D8B403D0134A142A04D02C
:1000A800000E146E010E136E000E166E000E156E05
:1000B8008198819AF292F2A41FD013041410D8A444
:1000C80004D0F40ED76E240E11D01350020A141067
:1000D800D8A404D0610ED76EA80E08D01350030A16
:1000E8001410D8A404D0500ED76E000ED66E000E91
:1000F800186E010E176EF2940EC0F5FF0DC0F8FFD2
:100108000CC0F7FF0BC0F6FF0AC0F4FF09C0F3FFED
:1001180008C0DAFF07C0D9FF06C0E2FF05C0E1FF4B
:1001280004C0EAFF03C0E9FF02C0FBFF01C0FAFFF9
:10013800110018501710D8A40AD03BD0818A819892
:1001480027D0818A25D0819A23D0818821D015C0D3
:100158000FF016C010F01050000AD8A419D00F5094
:10016800000AD8B4EBD7010AD8B4EDD7030AD8B43B
:10017800E8D7010AD8B4E7D7070AD8B4E2D7010A02
:10018800D8B4E1D7030AD8B4DED7010AD8B4DDD78A
:10019800070E155C000E1658D8B003D0154A162A5B
:1001A80004D0000E166E000E156E000E186E000EAE
:1001B800176E120018501710D8A40AD03BD0818AA5
:1001C800819827D0818A25D0819A23D0818821D00F
:1001D80015C00FF016C010F01050000AD8A419D09E
:1001E8000F50000AD8B4EBD7010AD8B4EDD7030AE8
:1001F800D8B4E8D7010AD8B4E7D7070AD8B4E2D701
:10020800010AD8B4E1D7030AD8B4DED7010AD8B4B2
:10021800DDD7070E155C000E1658D8B003D0154A66
:10022800162A04D0000E166E000E156E000E186EFB
:10023800000E176E120018501710D8A407D038D027
:10024800819A818824D0818A819821D015C00FF0A5
:1002580016C010F01050000AD8A419D00F50000A88
:10026800D8B4F1D7010AD8B4EBD7030AD8B4EBD77E
:10027800010AD8B4E5D7070AD8B4E5D7010AD8B433
:10028800E2D7030AD8B4DFD7010AD8B4DCD7070EFF
:10029800155C000E1658D8B003D0154A162A04D09B
:1002A800000E166E000E156E000E186E000E176EFC
:1002B8001200000E816E000E8A6ECF0E936E0F0E26
:1002C800C16EF40ED76E240ED66E030ED56E000ED8
:1002D800F26E480EF06EF28CF28E14501310D8A401
:1002E8000AD0FBD7DEEC00F0F8D79DEC00F0F5D78C
:1002F8001FEC01F0F2D713C011F014C012F0125025
:10030800000AD8A4EAD71150010AD8B4EBD7030AD7
:10031800D8B4EBD7010AD8B4EBD7DFD7186A176A75
:10032800166A156A146A136A000EF86E00015DEF0A
:0203380001F0D2
:020000040020DA
:08000000FFFFFFFFFFFFFFFF00
:020000040030CA
:0E000000FF08191EFF8181FF0FC00FE00F40A7
:00000001FF
