:04000000BDEF7FF0E1
:10FF7A000001C0EF7FF0000E816E000E8A6E0F0E38
:10FF8A00C16ECF0E936E8198818A000E026E000EAA
:10FF9A00016E200E015C4E0E0258D8B010D0000E31
:10FFAA00046E000E036E030E035C000E0458D8B0F4
:10FFBA0003D0034A042AF7D7014A022AEAD7819AC8
:10FFCA008188000E026E000E016E200E015C4E0E3C
:10FFDA000258D8B0D8D7000E046E000E036E050E74
:10FFEA00035C000E0458D8B003D0034A042AF7D79A
:06FFFA00014A022AEAD7C9
:020000040020DA
:08000000FFFFFFFFFFFFFFFF00
:020000040030CA
:0E000000FF08191EFF8181FF0FC00FE00F40A7
:00000001FF
